:100000000C9463000C948B000C948B000C9483185C
:100010000C9456180C9429180C948B000C945015C1
:100020000C948B000C948B000C948B000C946D172B
:100030000C948B000C948B000C948B000C948B0014
:100040000C9404160C948B000C94D2150C94AC15E3
:100050000C948B000C948B000C948B000C948B00F4
:100060000C944E160C948B00000000002400270016
:100070002A0000000000250028002B0000000008D6
:10008000000201000003040700000000000000005F
:10009000020102040810204080010204081020011F
:1000A00002040810200404040404040404020202EC
:1000B00002020203030303030300000000230026DF
:1000C00000290000B01811241FBECFEFD8E0DEBF1A
:1000D000CDBF13E0A0E0B1E0E2EAF2E402C0059097
:1000E0000D92AE31B107D9F726E0AEE1B3E001C021
:1000F0001D92A438B207E1F710E0C3E6D0E004C0D7
:100100002197FE010E94411FC236D107C9F70E9404
:1001100086190C944F210C9400000F931F93CF93DA
:10012000DF93EC0103E715E0D8018D919C916C2FD2
:100130006F77DC01ED91FC910190F081E02D099544
:10014000F80180819181CC0FCD2FCC1FDD0B6C2F5E
:100150006F77DC01ED91FC910190F081E02DDF9152
:10016000CF911F910F910994CF93DF93EB01A09151
:100170007305B09174058F70682F606EED91FC91DE
:1001800011970190F081E02DCD010995CE01DF910D
:10019000CF910C948D00CF93DF93FC01DB0112967D
:1001A0004C93129788EC94E011969C938E93C281A5
:1001B000D381888113969C911397892B88831296FB
:1001C0008C911297982F9D7F913031F495811396E1
:1001D0002C911397922B95838150823028F486813D
:1001E00013969C91892B8683809168009481892B3A
:1001F00080936800DF91CF9108958091730590916D
:100200007405DC01ED91FC910190F081E02D67EF28
:1002100009948091730590917405DC01ED91FC9136
:100220000190F081E02D60EF0994FF920F931F93EE
:10023000CF93DF93C82F062FF42E152F0E940901AC
:100240008091730590917405DC01ED91FC91019012
:10025000F081E02D6C2F0995CF2DD12F0C0F1D2F84
:10026000111DC017D10729F0899190E00E948D00DF
:10027000F8CFDF91CF911F910F91FF900C94FD006B
:10028000CF93DF930E9409018091730590917405CB
:10029000DC01ED91FC910190F081E02D69E7099579
:1002A0008091730590917405A0917605B0917705C2
:1002B000EC01E881F9810190F081E02D6C910995C4
:1002C0008091730590917405A0917605B0917705A2
:1002D000EC01E881F9810190F081E02D11966C919B
:1002E0000995C2E080917505C81760F4E091760524
:1002F000F0917705EC0FF11D808190E00E948D0058
:10030000CF5FF0CFDF91CF910C94FD00CF93DF93BF
:10031000C3E7D5E088819981DC01ED91FC910190E2
:10032000F081E02D69EF099588819981DC01ED91DB
:10033000FC910190F081E02D62E00995888199811E
:10034000DC01ED91FC910190F081E02D65E0DF9101
:10035000CF910994A0917305B0917405ED91FC9132
:1003600011970190F081E02D682FCD010994982F0D
:100370002091C70481E0213208F043C08091A3049A
:100380008111FCCF8091C60432E03093A304909396
:10039000A2049FEF9093A1041092A00420939F04C5
:1003A000A6EAB4E0EFE7F4E090E0291331C0109240
:1003B0007E0490917E04880F892B80937E04809127
:1003C0007D04813049F510927D0480917E048093F4
:1003D000BB008091BC0083FDF8CF85EC8093BC000E
:1003E0008091A3048230E1F38091A1048F3FB1F0AA
:1003F0008091A1048032A1F08091A104803391F01A
:1004000084E01092A5041092C7041092A4040895E9
:100410003D9131939F5FC9CF85EEE0CF80E0F1CF72
:1004200082E0EFCF83E0EDCF10927805109279054E
:1004300010927A05EBE7F5E0119285E0EB3BF807C7
:10044000D9F71092BB051092BD051092BC05E09142
:100450000606F0910706309709F009940895AF92C7
:10046000BF92CF92DF92EF92FF920F931F93CF93A1
:10047000DF936C017B018B01040F151FEB015E0103
:10048000AE18BF08C017D10759F06991D601ED9198
:10049000FC910190F081E02DC6010995892B79F737
:1004A000C501DF91CF911F910F91FF90EF90DF90E9
:1004B000CF90BF90AF900895FC01538D448D252FB0
:1004C00030E0842F90E0821B930B541710F0CF96EE
:1004D000089501970895FC01918D828D981761F020
:1004E000A28DAE0FBF2FB11D5D968C91928D9F5F37
:1004F0009F73928F90E008958FEF9FEF0895FC0116
:10050000918D828D981731F0828DE80FF11D858DC8
:1005100090E008958FEF9FEF0895FC01918D228D5B
:10052000892F90E0805C9F4F821B91098F739927E0
:10053000089586ED94E00E948D0221E0892B09F454
:1005400020E0822F089580E090E0892B29F00E941E
:10055000990281110C9400000895FC01A48DA80F4C
:10056000B92FB11DA35ABF4F2C91848D90E00196F5
:100570008F739927848FA689B7892C93A089B18915
:100580008C91837080648C93938D848D981306C0B6
:100590000288F389E02D80818F7D80830895EF921A
:1005A000FF920F931F93CF93DF93EC0181E0888F2D
:1005B0009B8D8C8D98131AC0E889F989808185FFFD
:1005C00015C09FB7F894EE89FF896083E889F9899F
:1005D00080818370806480839FBF81E090E0DF91A1
:1005E000CF911F910F91FF90EF900895F62E0B8DF4
:1005F00010E00F5F1F4F0F731127E02E8C8D8E11AF
:100600000CC00FB607FCFACFE889F989808185FF15
:10061000F5CFCE010E94AD02F1CFEB8DEC0FFD2F97
:10062000F11DE35AFF4FF0829FB7F8940B8FEA89D0
:10063000FB8980818062CFCFCF93DF93EC01888DDF
:100640008823B9F0AA89BB89E889F9898C9185FD4D
:1006500003C0808186FD0DC00FB607FCF7CF8C91DB
:1006600085FFF2CF808185FFEDCFCE010E94AD02E4
:10067000E9CFDF91CF91089590E0FC01E458FF4F5E
:100680002491FC01EF56FF4F3491FC01EB55FF4FD5
:10069000E491EE23C9F0222339F0233001F1A8F4CC
:1006A000213019F1223029F1F0E0EE0FFF1FEE5852
:1006B000FF4FA591B4918FB7F894EC91611126C0CA
:1006C00030953E233C938FBF08952730A9F0283002
:1006D000C9F0243049F7809180008F7D03C080915C
:1006E00080008F7780938000DFCF84B58F7784BDC3
:1006F000DBCF84B58F7DFBCF8091B0008F77809367
:10070000B000D2CF8091B0008F7DF9CF3E2BDACFF1
:100710009091000189130BC0E0E9F0E0E4919FEFB4
:1007200090930001E13049F028F0E23061F060E0A0
:100730000C943C0310926E00FACF90916F009D7F55
:1007400090936F00F4CF909170009D7F9093700014
:1007500091E09093B0009091B100987F9460909355
:10076000B1001092B300E3CFCF93DF9390E0FC0190
:10077000EF56FF4F24918B559F4FFC0184918823A6
:10078000C9F090E0880F991FFC01E859FF4FA5912F
:10079000B491FC01EE58FF4FC591D49161110DC089
:1007A0009FB7F8948C91209582238C93888128237D
:1007B00028839FBFDF91CF910895623051F49FB796
:1007C000F8943C91822F809583238C93E8812E2B83
:1007D000EFCF8FB7F894EC912E2B2C938FBFEACFED
:1007E0008E3008F08E508770806480937C008091FA
:1007F0007A00806480937A0080917A0086FDFCCF35
:10080000809178009091790008953FB7F894809195
:100810000D0490910E04A0910F04B091100426B520
:10082000A89B05C02F3F19F00196A11DB11D3FBF28
:10083000BA2FA92F982F8827BC01CD01620F711DF7
:10084000811D911D42E0660F771F881F991F4A95F1
:10085000D1F708958F929F92AF92BF92CF92DF927D
:10086000EF92FF926B017C010E9405044B015C0139
:10087000C114D104E104F104B9F00E94050468191F
:1008800079098A099B09683E73408105910580F3C7
:1008900021E0C21AD108E108F10888EE880E83E051
:1008A000981EA11CB11CE4CFFF90EF90DF90CF9079
:1008B000BF90AF909F908F900895FC01A281B3816B
:1008C0008C919581982327818223992361F0882335
:1008D00079F08085882321F081859285890F818731
:1008E000108612860895811103C081E080870895E3
:1008F0002085211104C0992319F081E08287089591
:100900008823E9F38FEFFACF833081F028F4813028
:1009100099F08230A9F008958730A9F08830C9F0A5
:100920008430B1F4809180008F7D03C0809180007D
:100930008F7780938000089584B58F7784BD089564
:1009400084B58F7DFBCF8091B0008F778093B0000E
:1009500008958091B0008F7DF9CF0F931F93CF93AF
:10096000DF93EC018B0188859985029749F461300A
:10097000710509F436C04CF560E00115110591F1DF
:1009800088859985049749F40130110509F451C00F
:100990009CF50115110509F43BC0888599850597DB
:1009A00009F0C5C00A30110508F0C1C0F801E552D0
:1009B000FB4F0C94411F2D053705450557056F0565
:1009C0007105770581058F0595056230710591F0F8
:1009D00060E003301105A1F68C850E943C0360E0C5
:1009E00005C061E08C850E943C0361E08E850E9419
:1009F0003C03C6CF61E0F0CF0230110501F10330B6
:100A0000110559F661E08C850E943C0360E01CC032
:100A100061E08C850E943C0360E08E850E943C036F
:100A200061E088890E943C0360E08A890E943C035F
:100A3000B4CF60E08C850E943C0361E0EECF60E0C3
:100A40008C850E943C0361E08E850E943C0360E03F
:100A500088890E943C0361E0E8CF60E08C850E94B9
:100A60003C0361E08E850E943C0361E009C060E0C8
:100A70008C850E943C0361E08E850E943C0360E00F
:100A800088890E943C0360E00DC060E08C850E9474
:100A90003C0361E08E850E943C0360E088890E94EF
:100AA0003C0361E08A890E943C0361E011C060E080
:100AB0008C850E943C0361E08E850E943C0360E0CF
:100AC00088890E943C0361E08A890E943C0360E0BF
:100AD0008C89DF91CF911F910F910C943C0361E0C1
:100AE000E7CF61E08C850E943C0360E0E5CF61E0E8
:100AF0008C850E943C0360E08E850E943C0361E08F
:100B0000DFCF61E08C850E943C0360E08E850E940F
:100B10003C0361E088890E943C0360E0D5CF61E03E
:100B20008C850E943C0360E09DCF60E0F9CFDF91AF
:100B3000CF911F910F91089585ED8093BC00809116
:100B4000BC0084FDFCCF1092A30408952091E7031C
:100B5000260F3327331F21323105ECF42091A304F3
:100B6000FC0190E080E0243069F082E00895A091DB
:100B7000E7032191AC014B535C4FA40FB52FB11D7E
:100B80002C930196861798F38091E703680F609382
:100B9000E70380E0089581E0089508950895089599
:100BA000E091C4038091C303E81730F4F0E0ED5501
:100BB000FC4F808190E008958FEF9FEF0895909112
:100BC000C4038091C3032FEF3FEF981748F4E92F38
:100BD000F0E0ED55FC4F208130E09F5F9093C4031F
:100BE000C90108958091C3039091C403891B990B97
:100BF0000895CF92DF92EF92FF920F931F93CF93BE
:100C0000DF937C01CB018A012091A404222389F087
:100C1000EB016B01C40ED51ECC15DD0569F06991A1
:100C2000D701ED91FC910190F081E02DC70109956C
:100C3000F3CF642F0E94A605C801DF91CF911F91C9
:100C40000F91FF90EF90DF90CF900895CF93DF93B7
:100C50001F92CDB7DEB769832091A4042223F9F057
:100C60002091C704203258F021E030E0FC013383AA
:100C7000228390E080E00F90DF91CF9108958091E2
:100C8000A504E82FF0E0EA55FB4F998190838F5F30
:100C90008093A5048093C70481E090E0ECCF61E0ED
:100CA000CE0101960E94A605F7CF90E080E008955E
:100CB000DF92EF92FF920F931F93CF93DF93EC019C
:100CC000D62E7A01890188818C3008F067C061E0F6
:100CD0008D2D0E94B4038881282F30E0F901EE0F9A
:100CE000FF1FE20FF31FE75EF94F9D2D9F73608199
:100CF000607C692B608320E232E02E193F0937FFC8
:100D000002C02D5F3F4F359527953595279529834F
:100D100020E639E0201B310B37FF02C02D5F3F4F2B
:100D200035952795359527952A832CE0622F0E94CB
:100D30000D1F829FB001112430E020E0AB01420F73
:100D4000531FFA01EE0FFF1FE40FF51FE75EF94F87
:100D5000908196FD16C02F5F3F4F2C30310571F703
:100D600081110FC01092800082E080938100109268
:100D7000850010928400B19A80916F008260809308
:100D80006F00E8818E2F90E0FC01EE0FFF1FE80F4F
:100D9000F91FE75EF94F8081806480838881DF914D
:100DA000CF911F910F91FF90EF90DF900895CF9317
:100DB0008630B0F421E030E0082E02C0220F331F4D
:100DC0000A94E2F740915A0450915B04672B51F466
:100DD000209530952423352330935B0420935A04C7
:100DE000CF910895242B352B30935B0420935A0424
:100DF0009091A1039111F4CFC82F0E94F003BC0180
:100E00008C2FCF910C94B4005F926F927F928F924F
:100E10009F92AF92BF92CF92DF92EF92FF920F9389
:100E20001F93CF93DF93833008F061C0D1E0D80FD8
:100E3000DD0FDD0FDD0F5D2ED53110F044E1542EB6
:100E4000C62F082FD8508D2E912CC401880F991FC2
:100E50009C012D583A4F5901D12CC12C10E0772418
:100E60007394D515C8F58EEF8D0F8231F8F4F60125
:100E7000E80DF91DE254FA4F90819230B8F48C2FAE
:100E8000872166246394811101C0612C7601EE0CE8
:100E9000FF1C913089F417293FE5E30EF11CF501A1
:100EA000EE0DFF1D862D90E091838083770CDF5F30
:100EB0008FEFC81AD80AD5CF882371F3F701E15A0A
:100EC000FF4FEA0DFB1D80819181019729F362E0BC
:100ED0008D2F0E94B403E0CF011119C0F8948BB19B
:100EE0006C2F68276C7F612368276BB97894DF913A
:100EF000CF911F910F91FF90EF90DF90CF90BF9017
:100F0000AF909F908F907F906F905F900895013089
:100F1000D1F4C123F89495B1812F8F7380958923E3
:100F20009C2F9F73892B85B988B1612F6295669537
:100F30006695637060956823C295C695C695C37023
:100F4000C62BC8B9D3CF1F70F89498B1812F880FE2
:100F5000880F80958923C123CC0FCC0FC82BF1CFEC
:100F60008F929F92AF92BF92CF92DF92EF92FF92B9
:100F70000F931F93CF93DF93EB01843108F098C058
:100F8000082F10E0F801E254FA4F9081933009F4F1
:100F90009CC0943009F08CC08250823108F081C02E
:100FA000F801E757FC4FC080D12C7601EE0CFF1CF6
:100FB0004B01603282E078070CF03EC0F701EC0D87
:100FC000FD1DE25CF94F8181A8E88A2E912C881AD8
:100FD000910887FD9394880C991C880C991C092C06
:100FE000000CAA08BB08828128E532E0281B3109E1
:100FF00087FD3395220F331F220F331F032E000C62
:10100000440B550B281939094A095B09DB01653B7B
:10101000710514F0A4EBB0E0B7FF02C0B0E0A0E0AF
:101020000E949D1E24EB30E040E050E00E94731EC1
:10103000820E931EA41EB51EF701EC0DFD1DE25C91
:10104000F94F20812C3068F5318188E890E0831BCE
:10105000910937FD9395880F991F880F991F88165E
:1010600099067CF0328188E592E0831B910937FD77
:101070009395880F991F880F991F881699060CF46D
:10108000C4010297880F991F4FB7F89430E0F90117
:10109000EE0FFF1FE20FF31FE75EF94F928381838C
:1010A0004FBF000F111FF801EE52FA4FD183C083DA
:1010B000DF91CF911F910F91FF90EF90DF90CF9034
:1010C000BF90AF909F908F9008957B01D82F833071
:1010D00041F08BEF800F823020F087EF800F83305C
:1010E00058F461E08D2F0E94B403E114F10461F41F
:1010F00060E08D2F0E943C03000F111FF801EE529B
:10110000FA4FF182E082D4CF8FEFE816F10411F4A8
:1011100061E0EFCFF801E458FF4FE491E33021F1B3
:1011200048F4E130B9F0E230D1F080E8E816F1049B
:101130007CF7DECFE73011F1E83041F1E430A9F778
:1011400080918000806280938000F0928B00E0921A
:101150008A00D2CF84B5806884BDE7BCCDCF84B58A
:10116000806284BDE8BCC8CF809180008068809395
:101170008000F0928900E0928800BECF8091B0009C
:1011800080688093B000E092B300B6CF8091B00049
:1011900080628093B000E092B400AECF9EEF980FD3
:1011A000923180F4E82FF0E0DF01A254BA4F9C9115
:1011B000913041F4EE0FFF1FEE52FA4F60837183BE
:1011C0000C943C0308950F931F93CF93082F10E0C6
:1011D000F801E85EFB4F9081C62FC92303561C4FD0
:1011E000411104C0D8019C919C1771F1682F809126
:1011F0007305909174056F706069DC01ED91FC914D
:101200000190F081E02D099580917305909174050E
:101210006C2F6F77DC01ED91FC910190F081E02D56
:10122000099580917305909174056C2F70E0660F9D
:10123000672F661F770BDC01ED91FC910190F08127
:10124000E02D0995F801C083CF911F910F9108956A
:10125000833040F5282F30E0F901E55EFB4F6083D5
:10126000672B01F1285E3B4FF9016081811106C0B7
:1012700099B19C7F692341E00C94E308813049F4E3
:1012800093B126B19F73F0E42F9F90011124922B0C
:10129000F1CF26B130E035952795359527952F70FC
:1012A0006223E9CF0895A82FB0E0A757BC4F9C91C7
:1012B000292F30E0F901EE0FFF1FE20FF31FE25C70
:1012C000F94FE0812E2F30E0F901EE0FFF1FE20F02
:1012D000F31FE75EF94F80818F7B808380918703C6
:1012E000981308C0992319F09150909387038FEFBA
:1012F0008C9308958823D9F3E0918803EF5FE093FE
:101300008803F0E0EE5DFC4F9083F1CFEF92FF9207
:101310001F93CF93DF93EC019F81809122032D8156
:101320003E81182F109513232823122B9827192359
:101330008F83E884F984E114F104D9F0D70113967E
:101340008C91982F912389F090912203892391E029
:1013500009F490E0F701948380819181DC01ED91A3
:10136000FC910190F081E02D0995F701E580F68070
:10137000E2CF8BB39C81892349F09BB3892B8BBB34
:10138000E881F981808180932203C6CFDF91CF91DC
:101390001F91FF90EF900895CF92DF92EF92FF920E
:1013A0001F93CF93DF9390E0FC01EB55FF4F249107
:1013B000211109C08FEFDF91CF911F91FF90EF9026
:1013C000DF90CF9008952250330BF12CE12C233085
:1013D000310538F4220F331FD901A05FBE4FED90C5
:1013E000FC90D701ED91FC911197208117962C93D9
:1013F00017978F569F4FFC0114911896CD90DC9053
:10140000C114D10489F0E6018B81181309C041E0B1
:10141000BE01C7010E94CB0080E0CDCFEC01F4CF2C
:101420008D819E810097D1F787E090E00E944E1F4A
:10143000FC01892B19F410920200BCCF81E0828359
:10144000168215821383CD2861F4D7011996FC9377
:10145000EE93189741E0BF01C7010E94CB0081E0E5
:10146000AACFFE83ED83F6CFFC0101900020E9F7BF
:101470003197BF01681B790BAC0181E70C94150112
:10148000CF93DF93DB01909187039C3078F5309107
:101490008803682F70E0FB01E757FC4F3323E1F02E
:1014A000C32FD0E0CE5DDC4F8881808331503093F4
:1014B0008803808123E0829FC0011124825C994FC0
:1014C0001A161B0674F4141615065CF49A01AD0185
:1014D000DF91CF910C94580690839F5F9093870380
:1014E000E8CF20E639E040E252E0F2CF8AE391E033
:1014F000DF91CF910C94340A9F92AF92BF92CF921A
:10150000DF92EF92FF920F931F93CF93DF93C82E3A
:10151000D12CE601CD58DA4FFE01E55BFF4F9081FB
:101520009F3709F4A1C0963061F49091A0039923EC
:1015300041F06630710529F01092A0039FEF90935F
:1015400001017B01182F0EEF080F023108F56430FE
:101550007105F1F0F601E757FC4F80818C30C0F443
:1015600090E0FC01EE0FFF1FE80FF91FE25CF94F5E
:10157000E0818E2F90E0FC01EE0FFF1FE80FF91FB6
:10158000E75EF94F808186FF03C0812F0E945309D7
:1015900052EF952E910E85E0891558F061E070E0CC
:1015A00032E0E316F10411F070E060E0892D0E9452
:1015B000D7060231C8F4E12FE695E695E695F0E00E
:1015C000E85EFB4F2081312F377081E090E001C051
:1015D000880F3A95EAF7E114F10421F03BE0E316B5
:1015E000F10411F5822B80835601AA0CBB1CF50176
:1015F000EE52FA4F118210828EE0E816F10408F0E4
:10160000DEC0F701EA5FF44F0C94411F280B550B25
:10161000170B660B840BDF0BBB0BDF0BD70BDF0B42
:10162000340B400BCF0BC70B80958223DCCF35E00A
:101630003915D0F0023120F460E0812F0E94B4030C
:10164000C55BDF4F88818F3779F082E088830CC0DB
:10165000023150F460E0812F0E94B403C55BDF4F7C
:1016600088818F3709F01882DF91CF911F910F91F8
:10167000FF90EF90DF90CF90BF90AF909F90089534
:10168000023190F762E0812F0E94B403C55BDF4F07
:1016900088818F3711F08BE08883F501EE52FA4F85
:1016A00081E090E091838083DFCF0231E8F660E053
:1016B000812F0E943C0361E0812F0E94B403C55B2F
:1016C000DF4F88818F3781F281E0C0CF133041F046
:1016D0008BEF810F823020F087EF810F833020F66F
:1016E00061E0812F0E94B40361E0812F0E94B40366
:1016F00060E0812F0E943C03C55BDF4F88818F37FC
:1017000009F4B2CF83E0A2CF023108F0ADCFC55BC0
:10171000DF4F88818F3711F084E08883F601E75727
:10172000FC4F80818F3FA9F090E0FC01EE0FFF1F7E
:10173000E80FF91FE25CF94FE0818E2F90E0FC0189
:10174000EE0FFF1FE80FF91FE75EF94F808186FD5E
:101750008BCF4FEF5FEF6FEF7FEF812FDF91CF9157
:101760001F910F91FF90EF90DF90CF90BF90AF90BF
:101770009F900C94400A1251123008F075CFC55B4F
:10178000DF4F88818F3709F46FCF86E05FCFC55B6D
:10179000DF4F88818F3709F467CF8DE057CFC55B66
:1017A000DF4F88818F3709F45FCF8CE04FCFC55B67
:1017B000DF4F88818F3709F457CF88E047CF8EE419
:1017C00091E0DF91CF911F910F91FF90EF90DF900B
:1017D000CF90BF90AF909F900C94340A0F931F93BB
:1017E000CF93DF9381E08093A1038091A0038823AE
:1017F00029F01092A0038FEF8093010110921B0437
:101800001092180410929D0310921C041092190457
:1018100010929E0310921D0410921A0410929F03BE
:1018200009E813E0C0E0DFEF82EF8C0F62E070E0C8
:101830008630C0F18EEF8C0F61E070E0823190F560
:101840008C2F0E948803F801D1938F01CF5FC431A0
:1018500059F71092740410927304ECE5F4E0A5E6D5
:10186000B4E08FE781932D913D91232B21F0ED0181
:1018700022971982188294E0E236F90799F71092BC
:101880005B0410925A0410928803109287031092FE
:101890008603109285031092A103DF91CF911F91CF
:1018A0000F9108958C2F0E947C0ACDCFEF92FF926A
:1018B0000F931F93CF93DF93082FEB01142FF22E7A
:1018C0006F3F760709F486C081E08093A4040093FB
:1018D000C6041092A5041092C7048DE096E00E9401
:1018E00026068F2D0E94B701809183039091840377
:1018F0008230910538F0880F991F880F991F05973E
:101900000197F1F78091A3048111FCCF912F11323F
:1019100008F090E281E08093A3048093A2042FEF6B
:101920002093A1041092A004290F20939F04809378
:101930007E0420917E04802F880F822B80937E046A
:1019400080917D04813009F047C010927D04809120
:101950007E048093BB008091BC0083FDF8CF85ECB2
:101960008093BC008091A3048130E1F38091A004B6
:10197000891710F49091A004AFE7B4E0E3EAF3E034
:1019800080E089132BC01092C4038093C303E12E1F
:10199000F12C90E0E816F9062CF58FE591E00E9415
:1019A000340A00932F03C0933003CFE2D3E0CE017B
:1019B0008F5293408E159F05DCF421969091C303BE
:1019C0008091C4039817A1F08DE096E00E94DF0596
:1019D0008983EDCFC0E096CF85EEC2CF2D912193C4
:1019E0008F5FCFCF8E159F05E4F68CE791E0D7CFC0
:1019F00062E0610F4FE253E087E7DF91CF911F91E3
:101A00000F91FF90EF900C9415012F923F924F92FF
:101A10005F926F927F928F929F92AF92BF92CF927E
:101A2000DF92EF92FF920F931F93CF93DF93CDB787
:101A3000DEB7C454D1090FB6F894DEBF0FBECDBFD8
:101A4000162F7A018D3609F40FC308F0C1C0803615
:101A500009F45EC300F5803509F447C28F3509F4F7
:101A6000F7C3CC5BDF4F0FB6F894DEBF0FBECDBF20
:101A7000DF91CF911F910F91FF90EF90DF90CF906A
:101A8000BF90AF909F908F907F906F905F904F909E
:101A90003F902F900895893609F429C38B3609F4B5
:101AA00090C28236F1F6209173043091740426308E
:101AB00031050CF0B7C5DA018C9180937A03119649
:101AC0009C9111979093790314964C91B0E84B9F99
:101AD000A0011124F701E380E40EF52EF11C245A35
:101AE0003B4FD9018C936CE070E00E947C0A6CE063
:101AF00070E0809179030E947C0A82E190E00E946C
:101B00004E1FDC014091790320917A0330E0F90106
:101B1000EF56FF4FE4911496EC93149750E0FA01BE
:101B2000EF56FF4FE4911596EC9315972B553F4FC9
:101B3000F9018491E82FF0E0EE0FFF1FEE58FF4F00
:101B40008591949117969C938E931697FA01EB5575
:101B5000FF4FE491F0E0EE0FFF1FE754FF4F859138
:101B600094911B969C938E931A97F9012491E22FDE
:101B7000F0E0EE0FFF1FE859FF4F85919491199601
:101B80009C938E931897C701F5EFEF16F1E0FF06CF
:101B900014F084EF91E049E3489F9001499F300D94
:101BA0001124245E3F4F1D963C932E931C978091E9
:101BB000730490917404FC01EE0FFF1FEB59FB4F6F
:101BC000B183A0830196909374048093730449CFEA
:101BD000823709F42AC508F048C08F3609F4CEC10F
:101BE000803709F03ECF653008F43BCFFA01108111
:101BF0008EEF810F823108F034CF0181C280D38013
:101C0000F480E12FF0E0E757FC4F80818C30C0F486
:101C100090E0FC01EE0FFF1FE80FF91FE25CF94FA7
:101C2000E0818E2F90E0FC01EE0FFF1FE80FF91FFF
:101C3000E75EF94F808186FF03C0812F0E94530920
:101C4000F0E8FF9EA00111244D0D511D20E8C29E19
:101C5000B0011124600F711D812F0E94400A64E0C1
:101C600070E0812F0E947C0AFCCE883709F4E5C021
:101C70008A3709F45EC1863709F0F3CEDA0111968E
:101C80009C91119795FF05C088E991E00E94340A64
:101C9000E8CEFA01808196FB332730F921E0232733
:101CA00098719830A1F1E8F49111DBCE91E0909316
:101CB000A4048093C6041092A5041092C70402E005
:101CC0000117E8F4F701E00FF11D618167956627C0
:101CD00067958081680F8DE096E00E9426060E5F72
:101CE000EFCF903189F1983109F0BBCE20910101FD
:101CF00012160CF45DC08FEF80930101B2CE81E02B
:101D00000E94B70183E191E00197F1F7AACE129604
:101D10009C91129713964C91663079F4B0E84B9FE2
:101D2000B0011124690F711D4581479544274795DE
:101D30009481490F0E94560C94CE479544274795AD
:101D4000490F6FEF7FEFF6CFE0910101E7301CF014
:101D500088EB91E09BCF12963C91129713969C9141
:101D60006630F9F4B0E89B9FA0011124430F511D88
:101D7000D70115969C911597979599279795149645
:101D80003C91930FEF5FE0930101B5E0EB02F001AE
:101D90001124EE5CFB4F8083528341839383248321
:101DA00060CE979599279795930F4FEF5FEFEACF06
:101DB00090E0622F022E000C770B35E0492F50E0A7
:101DC0006417750764F0349FF001359FF00D1124FE
:101DD000EE5CFB4F4081481719F09F5FEFCF90E01A
:101DE00085E0492F50E0641775071CF19830F8F42E
:101DF000FA0131968E9FD0018F9FB00D1124AE5CF9
:101E0000BB4F3C91849FF001859FF00D1124EE5C47
:101E1000FB4F308311964D915C9112975283418311
:101E200013963C911397338314963C9134839F5FB0
:101E3000D8CF21502093010114CEFA018181F0E81E
:101E40008F9F90011124DA018C91820F932F911DA5
:101E5000009721F090938403809383038091A003E3
:101E60008111FFCD10E08EEE810F823028F466E004
:101E700070E0812F0E947C0A1F5F1431A1F781E07E
:101E80008093A0031092C4031092C3031092A50480
:101E90001092C7041092A3048093A20410927D04B0
:101EA00061E082E10E943C0361E083E10E943C0327
:101EB0008091B9008E7F8093B9008091B9008D7FA9
:101EC0008093B90088E48093B80085E48093BC00D7
:101ED0008DEC95E09093E6038093E5038EEC95E01E
:101EE0009093EA038093E903BCCDDA0111968C91BB
:101EF000B0E88B9F90011124FA018081820F932F0B
:101F0000911D90932B0480932A042FB7F89480910D
:101F1000220490912304A0912404B09125042FBFA2
:101F20008093260490932704A0932804B093290457
:101F300098CD623008F495CDDA0111968C91B0E815
:101F40008B9F90011124FA018081820F932F911DA4
:101F5000009789F090930301809302016091020140
:101F60007091030188E290E00E94191F709376043B
:101F70006093750476CD81E090E0ECCF623008F498
:101F800070CDDA0111966C91119770E01230A1F0CA
:101F900012968C91B0E88B9FC0011124682B792B8D
:101FA000133051F0FA01838190E090E4899F902DE5
:101FB00088271124682B792BD7018C910E94B007B8
:101FC00050CD80EF0E94AA018CE60E94AA011EEF6C
:101FD00084EF810F863020F582E00E94AA018AE01A
:101FE0000E94AA018DEF810F8230E0F089EF810F0E
:101FF0008330F0F417C0123158F780E00E94AA0134
:1020000081E00E94AA018BE00E94AA0181E00E9467
:10201000AA0181E00E94AA0181E00E94AA01D8CF12
:10202000113001F783E00E94AA0188E00E94AA0112
:10203000123130F484E00E94AA018EE00E94AA01CD
:1020400080EF810F823030F486E00E94AA0181E0A7
:102050000E94AA018FE70E94AA011F5F123159F660
:1020600087EF0E94AA01FDCC662309F4FACCFA019D
:10207000008180EF0E94AA018EE60E94AA01802FB3
:102080000E94AA01043160F710E0F801E254FA4F0F
:1020900080810E94AA01000F111F98012E523A4F11
:1020A0007901D9018C918F770E94AA01F701808173
:1020B00091819C012078232B39F0880F892F881F6C
:1020C000990B8F770E94AA01F801EE52FA4F808196
:1020D00091819C012227307C232B11F2990F880BD0
:1020E000990F982F881F8F770E94AA01B9CF80EF90
:1020F0000E94AA018AE60E94AA0112EF8FE7163019
:1021000008F4812F0E94AA011F5F1630B9F7A8CFEB
:10211000DA018C9180932C0490917B0391111FC064
:1021200011969C912EE031E03093C9042093C804AD
:1021300021E62093D3048093CC049093CE04891796
:1021400059F0883010F4983038F428EF280F2630F2
:1021500050F49850963078F081E080937B0381E0D2
:10216000809331047ECC8E3020F09E30A8F38431F1
:1021700098F7943188F71092D0041092D104E0912E
:102180002004F0912104309709F058C028EC34E085
:1021900030932104209320041092D5041092D4048B
:1021A00090E0FC01EB55FF4FE491F0E0EE0FFF1FD4
:1021B000E754FF4F259134913093CB042093CA0408
:1021C000232B51F2FC01EF56FF4FE491E093CD0435
:1021D00084589F4FFC01849181110E948404809156
:1021E000CE0490E0FC01EF56FF4FE491E093CF0462
:1021F00084589F4FFC01849181110E94840460E007
:102200008091CC040E94B40360E08091CE040E94CF
:10221000B40361E08091CC040E943C0361E08091B2
:10222000CE040E943C031091CE048091CC040E9405
:10223000CC09812F0E94CC098FCFF90124853585E7
:1022400021153105D1F728EC34E035872487A4CF58
:10225000DA019C9111968C9111979111DDC1139621
:102260008C90B0E88B9E40011124FA012281820EED
:10227000911CA580F0E8AF9E90011124DA0114961C
:10228000AC90A20EB32EB11C909100019817D1F022
:102290009F3F09F0E6CB80930001E0E9F0E0E49194
:1022A0001E2FEF3F09F4DDCBE13009F490C008F4B4
:1022B00071C0E23009F4AEC0E7FDD3CB61E00E940B
:1022C000B4030AC0E0E9F0E0149117FDCACB61E065
:1022D0000E94B403112319F0123009F034C1240113
:1022E000092C000C6608770860E072E18AE790E04C
:1022F000A30192010E94731E25962CAF3DAF4EAFF5
:102300005FAF259769017A01B1E0CB1AD108E108E6
:10231000F108EFEFCE16D104E104F10409F00CF45A
:10232000EBC060E472E48FE090E0A30192010E94B0
:10233000731E69017A01F1E0CF1AD108E108F108B2
:10234000123009F08EC082E02FEFC216D104E104F2
:10235000F104C9F0C4F060E970ED83E090E0A301FE
:1023600092010E94731E69017A0161E0C61AD108C8
:10237000E108F1088FEFC816D104E104F10411F06F
:102380000CF03DC383E09091B100987F892B80933E
:10239000B100B9C014BC15BC94B5926094BD95B59C
:1023A000916095BD282F30E0F901EB55FF4FE49186
:1023B000F0E0EE0FFF1FEE58FF4F45915491F901E9
:1023C000EF56FF4FE491E093700310E080CF10923E
:1023D000800010928100909181009860909381001C
:1023E00090918100916090938100282F30E0F90155
:1023F000EB55FF4FE491F0E0EE0FFF1FEE58FF4F5B
:1024000045915491F901EF56FF4FE491E0936F032A
:1024100011E05DCF1092B0001092B1009091B00029
:1024200092609093B0009091B10091609093B10050
:10243000282F30E0F901EB55FF4FE491F0E0EE0F6B
:10244000FF1FEE58FF4F4591549150931204409353
:102450001104F901EF56FF4FE491E093130412E0E9
:1024600036CF9FEFC916D104E104F10409F00CF452
:1024700068C068E478EE81E090E0A30192010E94D8
:10248000731E69017A01A1E0CA1AD108E108F108B6
:10249000112309F4CDC2AFEFCA16D104E104F1044F
:1024A00009F00CF4C3C2CDC264E274EF80E090E0A6
:1024B000A30192010E94731E69017A01B1E0CB1A57
:1024C000D108E108F10885E0EFEFCE16D104E10470
:1024D000F10409F008F457CF62E17AE780E090E078
:1024E000A30192010E94731E69017A01B1E0CB1A27
:1024F000D108E108F108B7C281E0111144CF95B5C8
:10250000987F892B85BD2FEF3FEFA901A114B1045E
:1025100009F053C0113009F45DC0123009F46CC0E9
:1025200011119FCAC7BC2093750330937603409363
:1025300077035093780380916E00826080936E00E1
:1025400090CA82E0DACF2401092C000C66087708D3
:1025500060E072E18AE790E0A30192010E94731E9D
:1025600069017A0161E0C61AD108E108F10891E039
:10257000C114D10481E0E806F10484F068E478EE47
:1025800081E090E0A30192010E94731E69017A012B
:1025900091E0C91AD108E108F10893E0113009F07F
:1025A000B2CF80918100887F892B809381002FEFAB
:1025B0003FEFA901A114B10469F09401220F331F68
:1025C000D5010E94471F28EE33E040E050E00E9412
:1025D000DC1EA0CFD0928900C092880020937103A6
:1025E00030937203409373035093740380916F0090
:1025F000826080936F0035CAC092B30020931404A8
:102600003093150440931604509317048091700082
:1026100082608093700025CA913009F022CA0E941E
:1026200088031FCA89EC91E031CBDA018C918111CA
:10263000E1C01296AC90B0E8AB9EC0011124FA0143
:10264000A180A80EB92EB11C0381802E912CC480CC
:10265000D12C653089F58AE190E00E944E1F7C0103
:10266000DC011B961C921E921A971D921C92FC0173
:10267000168A178A108E118EB782A6829586848656
:10268000D786C68661E0802F0E94B40361E0D7013F
:102690001E968C910E94B403F701118A108A138A46
:1026A000128A158A148A82E090E091878087F092DE
:1026B0008603E0928503D5C96730E1F54580512C4A
:1026C0006680712C8AE190E00E944E1F7C01FC0123
:1026D0001386128611821082168A178A108E118E26
:1026E000B782A68295868486D786C686518A408A16
:1026F000738A628A61E0802F0E94B40361E0F7016F
:1027000086850E94B40361E0D70150968C910E94A7
:10271000B40361E0F70182890E94B403D7015596A2
:102720001C921E92549784E090E019969C938E938D
:102730001897BDCF86E092E00E94340A612F70E0C6
:1027400090E080E02AE0FE0131967F01AF010E9417
:10275000321EF70101900020E9F731978F010E1921
:102760001F09B8016F5F7F4F90E080E00E947320E7
:102770006C01009741F0DC011C92B7010E943921E5
:102780000115110541F5198286E392E00E94340A91
:10279000C7010E94340AC114D10409F462C9C601F8
:1027A000CC5BDF4F0FB6F894DEBF0FBECDBFDF911D
:1027B000CF911F910F91FF90EF90DF90CF90BF903E
:1027C000AF909F908F907F906F905F904F903F90D1
:1027D0002F900C94EA1F0F33110510F00FE310E057
:1027E000A801B601C7010E944021F701E00FF11FC7
:1027F0001082CACF813009F0CCC0C0908503D09040
:102800008603C114D10409F4C1C0FA010581F0E8BE
:102810000F9FC001112414960C911497080F192FC3
:10282000111D16967C90F60126813781032E000C2F
:10283000440B550B60E077E883E993E00E94731E38
:10284000CA01B901D70112968C901297912CB12C24
:10285000A12C37E0880C991CAA1CBB1C3A95D1F717
:1028600013962C91139730E050E040E0EEE0220FF9
:10287000331F441F551FEA95D1F7822A932AA42AB1
:10288000B52A11962C9114012501222AA201910149
:102890000E94731ED60112962D933D934D935C9327
:1028A0001597711003C0119501951109780117FF53
:1028B00004C0EE24FF24E01AF10A101611060CF0F1
:1028C0004DC081E090E0F6019183808304E010E048
:1028D0002AE0A22EB12CE114F10409F4C2C80E942E
:1028E0000504F60146885788608C718C9B01AC0109
:1028F0002419350946095709428053806480758040
:10290000241535054605570530F3668B778B808F88
:10291000918F82859385208131812130310529F580
:10292000019693878287268137818217930711F456
:1029300013861286B1E0EB1AF108F60182859385C1
:1029400020853185B5012530310509F0B8010E9497
:102950002D1FBC01C6010E94AD04BDCF012B09F49F
:10296000B5CFD6011D921C92B1CF892B21F486815F
:10297000978193878287D6011A968D919C911B9798
:1029800001971B969C938E931A97D4CF8EE392E077
:102990007DC98230A1F48091850390918603892BB3
:1029A00059F080EF0E94AA0182E70E94AA0185E007
:1029B0000E94AA0180E098CB8AE692E067C98FE97D
:1029C00092E064C984E04FEFC416D104E104F1043D
:1029D00009F008F494CD2596CCACDDACEEACFFACA0
:1029E00025978AE0F594E794D794C7948A95D1F710
:1029F00031E0C31AD108E108F10885E080CD68E430
:102A000078EE81E090E0A30192010E94731E6901BB
:102A10007A0161E0C61AD108E108F1088FEFC81603
:102A2000D104E104F10411F00CF03ECD84E0ABCC14
:102A300083E09FEFC916D104E104F10409F00CF41E
:102A40005ECD62E17AE780E090E0A30192010E940E
:102A5000731E69017A01F1E0CF1AD108E108F1088B
:102A6000112309F4AFCF86E02FEFC216D104E104A1
:102A7000F10409F008F487CC2596CCACDDACEEACC3
:102A8000FFAC25979AE0F594E794D794C7949A956C
:102A9000D1F7F1E0CF1AD108E108F10887E073CC53
:102AA0001F920F920FB60F9211242F933F934F93C3
:102AB0005F936F937F938F939F93AF93BF93EF93A6
:102AC000FF938091140490911504A0911604B09185
:102AD0001704892B8A2B8B2BD1F190911304E09151
:102AE0001104F0911204808189278083809114045D
:102AF00090911504A0911604B091170418161906A8
:102B00001A061B069CF48091140490911504A09160
:102B10001604B09117040197A109B1098093140418
:102B200090931504A0931604B0931704FF91EF91AE
:102B3000BF91AF919F918F917F916F915F914F91D5
:102B40003F912F910F900FBE0F901F90189580917D
:102B500000010E948803EACF1F920F920FB60F92D6
:102B600011242F933F934F935F936F937F938F9392
:102B70009F93AF93BF93EF93FF9386ED94E00E94F2
:102B8000AD02FF91EF91BF91AF919F918F917F9196
:102B90006F915F914F913F912F910F900FBE0F90CA
:102BA0001F9018951F920F920FB60F9211242F931A
:102BB0008F939F93EF93FF93E091E604F091E704E6
:102BC0008081E091EC04F091ED0482FD1BC09081C6
:102BD0008091EF048F5F8F732091F004821741F092
:102BE000E091EF04F0E0EA52FB4F958F8093EF0401
:102BF000FF91EF919F918F912F910F900FBE0F90AA
:102C00001F9018958081F4CF1F920F920FB60F92EC
:102C100011242F933F938F939F93AF93BF938091F2
:102C2000220490912304A0912404B09125043091B2
:102C30000C0423E0230F2D3758F50196A11DB11D7B
:102C400020930C048093220490932304A0932404E3
:102C5000B093250480910D0490910E04A0910F046F
:102C6000B09110040196A11DB11D80930D049093A5
:102C70000E04A0930F04B0931004BF91AF919F91E5
:102C80008F913F912F910F900FBE0F901F9018952D
:102C900026E8230F0296A11DB11DD2CF1F920F92DD
:102CA0000FB60F9211242F933F934F935F936F931F
:102CB0007F938F939F93AF93BF93EF93FF938091F5
:102CC000B900887F803609F44AC0F0F5883209F4EB
:102CD000A7C018F5803109F49BC0B8F4882309F423
:102CE000F9C0883009F494C0FF91EF91BF91AF9182
:102CF0009F918F917F916F915F914F913F912F9114
:102D00000F900FBE0F901F901895883109F488C05E
:102D1000803251F78093A10414C0803409F49DC01F
:102D200040F48033B9F38833F9F68093A10485EC3D
:102D3000B0C0803509F485C0883509F496C0883460
:102D400099F60E949C05D0CF883909F48CC038F5DB
:102D5000883729F050F4883611F0803729F683E05F
:102D60008093A30410920B0457C0883809F47BC0E9
:102D7000803919F0803809F0B7CF80910B04803288
:102D800008F071C0E0910B0481E08E0F80930B047A
:102D90008091BB00F0E0E551FC4F80833DC0803B5B
:102DA00039F0E0F4803A09F479C0883A09F09CCF10
:102DB00084E08093A3041092E8031092E703E0916B
:102DC000E503F091E60309958091E70381110FC0B7
:102DD00081E08093E7031092C50309C0803C09F4A9
:102DE000A6CF883C09F4A3CF883B09F07DCFE091C2
:102DF000E80381E08E0F8093E803F0E0EB53FC4F93
:102E000080818093BB009091E8038091E70329C003
:102E100080917E048093BB0085EC8093BC0064CFDE
:102E20009091A00480919F04981758F5E091A00418
:102E300081E08E0F8093A004F0E0E158FB4F808189
:102E4000E9CFE091A00481E08E0F8093A0048091EF
:102E5000BB00F0E0E158FB4F80839091A00480918B
:102E60009F049817C8F285E8D8CFE091A00481E0CC
:102E70008E0F8093A0048091BB00F0E0E158FB4FDF
:102E800080838091A20481115CCF81E080937D04D6
:102E900084EA8093BC001092A30426CF85EC809333
:102EA000BC001092A30480910B04803230F4E091B6
:102EB0000B04F0E0E551FC4F108260910B0470E0D0
:102EC000E091E903F091EA038BEE93E0099510920B
:102ED0000B040ACF1092A10434CF1F920F920FB6A9
:102EE0000F9211242F933F934F935F936F937F9390
:102EF0008F939F93AF93BF93CF93DF93EF93FF9302
:102F00008091A203C0913D06D0E087FF24C01092BB
:102F10008500109284008091A2038F5F8093A203AA
:102F20008091A203082E000C990B8C179D0724F4A6
:102F30008091A2038C30C4F180918400909185002F
:102F4000049680349C4908F47AC080918400909162
:102F50008500049676C08091A203082E000C990B80
:102F60008C179D07C4F6E091A2038E2FEE0F990BEC
:102F7000FC01EE0FFF1FE80FF91FE75EF94F80819C
:102F800086FFC9CFE091A2038E2FEE0F990BFC01B3
:102F9000EE0FFF1FE80FF91FE75EF94F808160E039
:102FA0008F730E943C03B7CF20918400309185003D
:102FB000E091A2038E2FEE0F990BFC01EE0FFF1F85
:102FC000E80FF91FE75EF94F81819281820F931F0D
:102FD0009093890080938800E091A2038E2FEE0FDA
:102FE000990BFC01EE0FFF1FE80FF91FE75EF94F89
:102FF000808186FF11C0E091A2038E2FEE0F990B06
:10300000FC01EE0FFF1FE80FF91FE75EF94F80810B
:1030100061E08F730E943C03FF91EF91DF91CF91AC
:10302000BF91AF919F918F917F916F915F914F91E0
:103030003F912F910F900FBE0F901F90189580E435
:103040009CE990938900809388008FEF8093A2037E
:10305000E3CF1F920F920FB60F9211242F933F933D
:103060004F935F936F937F938F939F93AF93BF9390
:10307000EF93FF93E0916206F09163068081809365
:10308000220382E696E00E948609FF91EF91BF91AC
:10309000AF919F918F917F916F915F914F913F91F0
:1030A0002F910F900FBE0F901F9018951F920F92A7
:1030B0000FB60F9211242F933F934F935F936F930B
:1030C0007F938F939F93AF93BF93EF93FF93E09181
:1030D0006C06F0916D068081809322038CE696E069
:1030E0000E948609FF91EF91BF91AF919F918F91BF
:1030F0007F916F915F914F913F912F910F900FBEF4
:103100000F901F9018951F920F920FB60F921124D7
:103110002F933F934F935F936F937F938F939F93DF
:10312000AF93BF93EF93FF93E0917606F09177060C
:1031300080818093220386E796E00E948609FF91B2
:10314000EF91BF91AF919F918F917F916F915F911F
:103150004F913F912F910F900FBE0F901F90189598
:10316000CF92DF92EF92FF921092D9041092D8047E
:1031700068EEC62E63E0D62EE12CF12CC092DA0464
:10318000D092DB04E092DC04F092DD048AE191E06D
:103190009093D7048093D60485EC90E09093E30459
:1031A0008093E20484EC90E09093E5048093E4043F
:1031B00080EC90E09093E7048093E60481EC90E04B
:1031C0009093E9048093E80482EC90E09093EB0400
:1031D0008093EA0486EC90E09093ED048093EC04F5
:1031E0001092EF041092F0041092F1041092F20485
:1031F00010920C06109275051092770510927605C4
:103200000E9414021092100610920F06C09211062E
:10321000D0921206E0921306F09214068CE291E02E
:1032200090930E0680930D06EDEBF0E0859194915E
:1032300090937706809376068BE690E090937906DC
:103240008093780681E080937A0610927B06109234
:103250007C0610927F0610927E06EFEBF0E08591DF
:10326000949190936D0680936C068CE690E0909319
:103270006F0680936E0682E080937006109271064E
:10328000109272061092750610927406E1ECF0E04E
:103290008591949190936306809362068DE690E009
:1032A000909365068093640684E08093660610928E
:1032B00067061092680610926B0610926A06EEE39B
:1032C000F6E022E636E04FEF68EB7BE080913D06CA
:1032D0008C30D0F491E0980F90933D06808390E07D
:1032E000DC01AA0FBB1FA80FB91FA75EB94F12962A
:1032F0007C936E93119733962E173F0739F7FF9003
:10330000EF90DF90CF9008954083F5CF789484B507
:10331000826084BD84B5816084BD85B5826085BDD1
:1033200085B5816085BD80916E00816080936E005F
:103330001092810080918100826080938100809151
:103340008100816080938100809180008160809302
:1033500080008091B10084608093B1008091B000C2
:1033600081608093B00080917A00846080937A00BD
:1033700080917A00826080937A0080917A008160E7
:1033800080937A0080917A00806880937A0010920E
:10339000C10081E180937505809176059091770554
:1033A0000E94EA1FC0917505D0E0CE0101960E94EF
:1033B0004E1F9093770580937605FC01EC0FFD1F5F
:1033C000108212E0DC011C9325E011962C93AE01D3
:1033D000425051096EE073E002960E94402180EB5A
:1033E00097E09093FB058093FA0584E097E0909333
:1033F000FD058093FC0587ED96E09093FF05809393
:10340000FE0588E299E090930106809300068CE720
:103410009AE090930306809302068EEC98E09093D6
:1034200005068093040685E09DE090930B0680934B
:103430000A068EEE9BE09093070680930606E091C5
:10344000E604F091E7041083E091E604F091E704CC
:103450001082E091E204F091E3041082E091E40430
:10346000F091E50480E180831092EE04E091EA049B
:10347000F091EB0486E08083E091E804F091E904A8
:10348000808180618083E091E804F091E90480818B
:1034900088608083E091E804F091E904808180688D
:1034A0008083E091E804F091E90480818F7D80833E
:1034B00086ED94E0909374058093730580910C06DB
:1034C00081114FC061E08DE00E94B40362ED70E0B5
:1034D00080E090E00E942A0461E08DE00E943C03BD
:1034E00068E270E080E090E00E942A0460E08DE0F5
:1034F0000E943C0362ED70E080E090E00E942A04AC
:1035000061E08DE00E943C0368E270E080E090E0C2
:103510000E942A0460E08DE00E943C036AEF70E0A4
:1035200080E090E00E942A04C5E062ED70E080E057
:1035300090E00E942A0461E08DE00E943C0368E272
:1035400070E080E090E00E942A0460E08DE00E943C
:103550003C03C15051F76DE770E080E090E00E94BD
:103560002A040E9486018091750581110E94400104
:103570000E94EE0B78EE472E73E0572EEBE06E2E96
:10358000712CF3E2CF2ED12CA9E3AA2EB12CB0E0FE
:103590008B2EB0E09B2E3324339465E0262E809151
:1035A0001B04882349F069B18091180468236C7F5B
:1035B00040E080E00E94E30880911C04882379F0B9
:1035C00063B186B16F73B0E48B9FC0011124682B87
:1035D00080911904682340E081E00E94E308809113
:1035E0001D04882359F066B180911A048F70669586
:1035F0006695682340E082E00E94E30880917305AD
:1036000090917405DC01ED91FC910084F185E02D31
:103610000995892B09F426C1809173059091740551
:10362000DC01ED91FC910284F385E02D09958F3F3B
:10363000980721F3382F2091BB05222309F465C098
:10364000873F09F053C01092BB0580917B058137FD
:1036500049F08937E9F580917505882379F20E9450
:103660004001CCCFE0910806F0910906309731F285
:103670002091BC053091BD05C901019797FDC90195
:1036800095958795582FC3E7D5E0DE0130E0229667
:103690001196351770F44F8117964C93179728851C
:1036A000279522272795240F17962C9317973F5F6E
:1036B000EECF9927DC01AD58BA4F17968C9117972A
:1036C000882311F018961C928BE795E0099596CF08
:1036D000E0910A06F0910B06309709F48FCF6091C4
:1036E000BC0561504CE755E0099588CF2091BC0599
:1036F0003091BD05F901ED58FA4F80872F5F3F4F9C
:103700003093BD052093BC0579CF20917805222305
:1037100009F466C087FD64C09FEF920F909378050F
:10372000E92FF0E0ED58FA4F8087911167CF809133
:103730007905882309F462CF803D09F446C060F41E
:10374000803921F1E091FE05F091FF05803C09F4FC
:1037500040C01092790552CF843F29F1853F81F115
:10376000803EB9F7E091FA05F091FB05309789F3B7
:1037700060917B0520E8629FC001112460917C0567
:10378000680F792F711D80917A0518C0E091FC05B2
:10379000F091FD053097E9F260917B05A0E86A9F02
:1037A000C0011124EBCFE0910206F0910306609175
:1037B0007B0570E080917C05309759F20995C9CF5F
:1037C000E0910406F0910506F2CFE0910006F09139
:1037D0000106309709F4BDCF60917B0570E0D3CF2F
:1037E000303FC0F4282F207F30E08F7080937A051F
:1037F000203F310569F1C4F4203C310531F16CF40E
:103800002039310509F0FACEB2E0B0937805209363
:103810007905F4CE9C013327EBCF203D3105A9F08B
:10382000203E310589F3EACE293F3105C1F034F459
:10383000C901845F9109029738F3E0CE2F3F31052B
:1038400009F0DCCE0E941402D9CE30927805DFCF89
:103850003092BB051092BD051092BC05CFCE0E94E0
:103860008601CCCE8FB7F8940091220410912304E6
:1038700020912404309125048FBF40917904509108
:103880007A0460917B0470917C0480910201909194
:103890000301B0E0A0E0041B150B260B370B8017CB
:1038A0009107A207B30708F0B5C1840F951FA61FA3
:1038B000B71F8093790490937A04A0937B04B0930C
:1038C0007C0480917704909178049C012F5F3F4F96
:1038D0003093780420937704209175043091760416
:1038E000281739070CF0A5C01092780410927704BD
:1038F00000917304109174040115110509F499C025
:10390000E0907104F0907204F701EE0FFF1FEB5985
:10391000FB4FC081D181E885F98580819C81892B0D
:103920008083EE81FF8190818C81809589238083C3
:10393000C3010197F1F7EE81FF8180819C81892B82
:103940008083C6010197F1F7EE81FF8190818C8120
:10395000809589238083E885F98590818C81809585
:10396000892380830E940504605B794B8F4F9F4FB2
:103970006E877F87888B998BEA85FB8580819D8107
:10398000892359F00E9405042E853F85488959896D
:10399000261737074807590778F7EA85FB8580819E
:1039A0009D81892309F087C00E9405042E853F85EB
:1039B00048895989261737074807590770F790E053
:1039C00080E0B5010E94191FCB01E09264049701C9
:1039D0002F5F3F4F309372042093710401501109FF
:1039E000E016F10624F010927204109271046F77C1
:1039F00060936304880F892F881F990B809362045A
:103A000080EF0E94AA0183E60E94AA01E09164046B
:103A1000F0E0E45AFB4F80810E94AA018091630488
:103A20000E94AA01809162040E94AA0187EF0E946D
:103A3000AA01C3E7D5E012EF1630C8F4FE01E55B3A
:103A4000FF4F8081823099F480915A0490915B04F9
:103A5000012E02C0959587950A94E2F780FF07C072
:103A6000812F0E94F003BC01812F0E94B4001F5FD0
:103A70002196163009F78091010187FD4CC0C0E006
:103A80002C2F30E080910101082E000C990B821739
:103A900093070CF440C0229EF001239EF00D1124E8
:103AA000EE5CFB4F618172812481438180810E94A1
:103AB000560CCF5FE5CF0E9405042C853D85AB01F8
:103AC000BC01420F531F611D711D4E875F87688BBC
:103AD000798BEA85FB8580819D81892361F00E9435
:103AE00005042E853F8548895989261737074807D9
:103AF000590778F764CF0E9405042C853D85A901FC
:103B0000455051092E853F85FA01E21BF30BCF0189
:103B1000860F971F56CF809131048823B9F11092F8
:103B2000300410922F04E0912004F0912104F093CE
:103B30001F04E0931E04309709F065C010921F0423
:103B400010921E0480912D0490912E04282F2F771F
:103B500020932F04880F892F881F990B8F778093CC
:103B6000300480EF0E94AA0181E60E94AA018091A0
:103B70002C040E94AA0180912F040E94AA01809126
:103B800030040E94AA0187EF0E94AA0180912A04B2
:103B900090912B04892B09F43DC08FB7F894409184
:103BA00022045091230460912404709125048FBF56
:103BB0008091260490912704A0912804B0912904B3
:103BC000481B590B6A0B7B0B20912A0430912B0464
:103BD000249DC001259D900D349D900D1124B0E0D1
:103BE000A0E084179507A607B707A0F40E94EE0B84
:103BF00088E198E00FB6F894A895809360000FBE16
:103C000090936000FFCF2185211110C00484F585B9
:103C1000E02D91CF8114910409F4C1CC0E94990246
:103C2000882309F4BACC0E940000B7CCF0931F049B
:103C3000E0931E0427FF03C081E0820F8187818506
:103C4000181614F48150818740912D0450912E0450
:103C5000822F220F990B840F951F90932E0480932F
:103C60002D0470CFBB272A3051F4992342F4BDE2D2
:103C700090958095709561957F4F8F4F9F4F0C94D5
:103C8000421EBB27FA01A62F621771058105910517
:103C9000330B30FB66F0AA27660F771F881F991F2A
:103CA000AA1FA21710F0A21B63953850A9F7A05DB8
:103CB000AA3308F0A95DA19336F7B111B193108230
:103CC000CA010C94631EDC01FC01672F71917723FC
:103CD000E1F7329704C07C916D9370836291AE17C7
:103CE000BF07C8F30895052E97FB1EF400940E94A9
:103CF0008A1E57FD07D00E94DC1E07FC03D04EF43D
:103D00000C948A1E50954095309521953F4F4F4F0A
:103D10005F4F089590958095709561957F4F8F4F77
:103D20009F4F08950E94FE1EA59F900DB49F900D79
:103D3000A49F800D911D11240895B7FF0C94921E2D
:103D40000E94921E821B930B08952F923F924F92D6
:103D50005F926F927F928F929F92AF92BF92CF921B
:103D6000DF92EF92FF920F931F93CF93DF93CDB724
:103D7000DEB7CA1BDB0B0FB6F894DEBF0FBECDBF9C
:103D800009942A88398848885F846E847D848C846D
:103D90009B84AA84B984C884DF80EE80FD800C8176
:103DA0001B81AA81B981CE0FD11D0FB6F894DEBF59
:103DB0000FBECDBFED010895A1E21A2EAA1BBB1BB9
:103DC000FD010DC0AA1FBB1FEE1FFF1FA217B307E7
:103DD000E407F50720F0A21BB30BE40BF50B661FFD
:103DE000771F881F991F1A9469F7609570958095C1
:103DF00090959B01AC01BD01CF010895A29FB00138
:103E0000B39FC001A39F700D811D1124911DB29F0E
:103E1000700D811D1124911D0895991B79E004C036
:103E2000991F961708F0961B881F7A95C9F78095F9
:103E30000895AA1BBB1B51E107C0AA1FBB1FA617F1
:103E4000B70710F0A61BB70B881F991F5A95A9F743
:103E500080959095BC01CD01089597FB072E16F42F
:103E6000009407D077FD09D00E94191F07FC05D0E8
:103E70003EF4909581959F4F0895709561957F4F81
:103E80000895EE0FFF1F0590F491E02D09940E9414
:103E9000FE1EB7FF0895821B930B08950F931F9387
:103EA000CF93DF938230910510F482E090E0E091AF
:103EB0008206F091830630E020E0B0E0A0E0309789
:103EC00099F42115310509F44AC0281B390B243017
:103ED0003105D8F58A819B816115710589F1FB0156
:103EE00093838283FE0111C040815181028113813D
:103EF00048175907E0F04817590799F4109761F0EF
:103F000012960C93129713961C933296CF01DF9161
:103F1000CF911F910F91089500938206109383060D
:103F2000F4CF2115310551F04217530738F0A9019C
:103F3000DB019A01BD01DF01F801C1CFEF01F9CF2B
:103F40009093830680938206CDCFFE01E20FF31F8C
:103F5000819391932250310939832883D7CF2091BF
:103F6000800630918106232B41F420910601309187
:103F7000070130938106209380062091040130913F
:103F800005012115310541F42DB73EB740910801D7
:103F900050910901241B350BE0918006F0918106B8
:103FA000E217F307A0F42E1B3F0B2817390778F010
:103FB000AC014E5F5F4F2417350748F04E0F5F1F6F
:103FC0005093810640938006819391939FCFF0E0B8
:103FD000E0E09CCFCF93DF930097E9F0FC013297AC
:103FE00013821282A0918206B0918306ED0130E027
:103FF00020E01097A1F420813181820F931F20913E
:104000008006309181062817390709F061C0F093C6
:104010008106E0938006DF91CF910895EA01CE17E3
:10402000DF07E8F54A815B819E0141155105B1F733
:10403000E901FB83EA8349915991C40FD51FEC171D
:10404000FD0761F4808191810296840F951FE9013B
:1040500099838883828193819B838A83F0E0E0E067
:1040600012968D919C9113970097B9F52D913C91E3
:104070001197CD010296820F931F209180063091F7
:1040800081062817390739F6309751F510928306C3
:1040900010928206B0938106A0938006BCCFD38392
:1040A000C28340815181840F951FC817D90761F4DD
:1040B0004E5F5F4F88819981480F591F518340831C
:1040C0008A819B81938382832115310509F0B0CFCA
:1040D000F0938306E09382069ECFFD01DC01C0CF02
:1040E00013821282D7CFB0E0A0E0E9E7F0E20C94AF
:1040F000A71E8C01009751F4CB010E944E1F8C012A
:10410000C801CDB7DEB7E0E10C94C31EFC01E60F99
:10411000F71F9C0122503109E217F30708F49DC0F4
:10412000D901CD91DC911197C617D70798F0C5300A
:10413000D10530F3CE0104978617970708F3C61B05
:10414000D70B2297C193D1936D937C93CF010E949B
:10415000EA1FD6CF5B01AC1ABD0A4C018C0E9D1E26
:10416000A0918206B0918306512C412CF12CE12CB8
:10417000109731F5809180069091810688159905F8
:1041800009F05CC04616570608F058C0809104013B
:1041900090910501009741F48DB79EB740910801B9
:1041A00050910901841B950BE817F90708F055C0D9
:1041B000F0938106E0938006F90171836083A0CFBC
:1041C0008D919C91119712966C90129713967C90FA
:1041D0001397A815B90559F56C0142E0C40ED11C1E
:1041E000CA14DB0420F1AC014A195B09DA0112960A
:1041F000159780F06282738251834083D9016D9359
:104200007C93E114F10471F0D7011396FC93EE93C3
:10421000129776CF22968C0F9D1FF9019183808390
:10422000F301EFCFF0938306E093820669CF48163F
:10423000590608F42C017D01D3019ACFCB010E94CD
:104240004E1F7C01009749F0AE01B8010E94302159
:10425000C8010E94EA1F870153CF10E000E050CF51
:10426000FB01DC0102C001900D9241505040D8F793
:104270000895FB01DC0101900D920020E1F7089503
:10428000FB01DC014150504048F001900D920020AC
:10429000C9F701C01D9241505040E0F70895F894CD
:0242A000FFCF4E
:1042A200FFFF1300000084068000000000005D0490
:1042B20076066C06620600000000CF022F025C0246
:1042C2001C038D026B027F02000000002606F90526
:1042D2005506CF05F205DF05D0054D6178207365DF
:1042E20072766F7320617474616368656400556EE1
:1042F2006B6E6F776E2070696E206D6F646500491A
:1043020032433A20546F6F206D616E792062797466
:104312006573207265636569766564004932433A64
:1043220020546F6F206665772062797465732072FE
:10433200656365697665640031302D626974206158
:10434200646472657373696E67206E6F742073752F
:1043520070706F7274656400746F6F206D616E7936
:1043620020717565726965730050494E475F434F0E
:104372004E464947204572726F723A20457863650E
:1043820065646564206E756D626572206F66207368
:104392007570706F727465642070696E67206465F1
:1043A2007669636573005354455050455220434F1C
:1043B2004E464947204572726F723A2057726F6EAD
:1043C20067204E756D626572206F66206172677537
:1043D2006D656E74730061726763203D20005354F3
:1043E2004550504552204F50455241544520457248
:1043F200726F723A204D4F544F52204E4F54204309
:104402004F4E464947555245440053544550504536
:1044120052204649524D5741524520564552534922
:104422004F4E204572726F723A204E4F204D4F54BC
:104432004F525320434F4E4649475552454400532D
:1044420054455050455220434F4E464947204572ED
:10445200726F723A20554E4B4E4F574E2053544571
:104462005050455220434F4D4D414E44002F686FEE
:104472006D652F6164617369656B2F417264756943
:104482006E6F2F6C69627261726965732F46697211
:104492006D617461506C75732F6578616D706C65B8
:1044A200732F4669726D617461506C75732F466922
:0E44B200726D617461506C75732E696E6F00CF
:00000001FF
